:020000040000FA
:060000000A128A11EE2F26
:100EE6007008831203138800080083160313880111
:100EF6008312031388010800C730F200822FF20B19
:100F0600812F852F862F0130F0020030031CF1035C
:100F1600F1027F2F7F2F08003F3406345B344F34B5
:100F260066346D347D34073479347F346F347734E6
:100F36007C3439345E3471347E088A007F0882003E
:100F46000A128A119F270A128A118000840A04084D
:100F56007D0603190034FF0A0319FE0AA32FF501C3
:100F6600F6010A128A1178270A128A11BA2F750811
:100F7600203E840083130008F300F4017308F00098
:100F86007408F1000A128A1173270A128A11E830CE
:100F9600F0000330F1000A128A117F270A128A1123
:100FA6000130F5070318F60A0030F6077608803A8E
:100FB600FF0080307F02031DE22F10307502031CF4
:100FC600E52FE62FBA2FF501F601BA2FBA2FBA2F61
:100FD6000A128A11002883133030FD000730FE0004
:100FE6008F30FF00203084000A128A11A3270A12CC
:0A0FF6008A1183010A128A11B22F3A
:04400E00D4E0FFFFFC
:00000001FF
