:020000040000FA
:060000000A128A11EE2F26
:100C9C0083160313081488140800831603138601A3
:100CAC008312031386010800700C83120313031CB8
:100CBC008813031888170800700C83120313031C85
:100CCC000813031808170800700C83120313031C75
:100CDC0088120318881608007008203E84008313BD
:100CEC00000883120313860008008316031388136D
:100CFC0088120813831203130812881208130800B1
:100D0C008312031308080139F200F3017208F00092
:100D1C007308F100912E080083120313080C01399B
:100D2C00F200F3017208F0007308F1009D2E080028
:100D3C0006345B344F3466346D347D340734793487
:100D4C007F34003400340034003400340034003478
:100D5C007E088A007F0882000A128A11AE260A12C7
:100D6C008A118000840A04087D0603190034FF0AE6
:100D7C000319FE0AB22ED02EC730F200C52EF20B8C
:100D8C00C42EC82EC92E0130F0020030031CF10312
:100D9C00F102D02E70087104031DD52ED62EC22E52
:100DAC00D72E0800F601F701FA01C12FC12FFA0165
:100DBC00FA0AC12F0A128A1153260A128A110A1230
:100DCC008A117B260A128A110A128A114E260A12DD
:100DDC008A110230F4007408FA00C12F0A128A1129
:100DEC0092260A128A1170037104031DFE2EFF2E27
:100DFC00C12F0330F4007408FA00C12FC12F013049
:100E0C00F0000030F1000A128A115A260A128A11D7
:100E1C000130F0000030F1000A128A1162260A1229
:100E2C008A110030F000F1000A128A116A260A12A7
:100E3C008A110430F4007408FA00C12FB830F8009D
:100E4C000B30F9000530F4007408FA00C12F0A12B7
:100E5C008A1186260A128A1170037104031D372F1A
:100E6C00382F3D2F0930F4007408FA003D2F013063
:100E7C00F0000030F1000A128A11C1260A128A1100
:100E8C00FF30F8070318F90AFF30F9077908803AA0
:100E9C00FF0080307F02031D552F013078020318AC
:100EAC00582F592FC12F0630F4007408FA00C12FA7
:100EBC00C12F0130F0000030F1000A128A115A26BD
:100ECC000A128A110030F000F1000A128A1162260F
:100EDC000A128A110130F0000030F1000A128A1156
:100EEC006A260A128A110730F4007408FA00C12F1E
:100EFC007708F1007608F0000A128A1172260A129D
:100F0C008A110130F6070318F70A0030F70708308A
:100F1C00F4007408FA00C12F0A128A1186260A12EC
:100F2C008A1170037104031D9C2F9D2FC12F093052
:100F3C00F4007408FA00C12FC12F0030F000F1004A
:100F4C000A128A115A260A128A110030F000F10096
:100F5C000A128A1162260A128A110030F000F1007E
:100F6C000A128A116A260A128A110230F4007408D5
:100F7C00FA00C12FC12F7A08F400F5017508003A68
:100F8C000319C92FC12F7408003A0319DD2E013A39
:100F9C000319E02E033A0319F42E013A0319052F15
:100FAC00073A0319242F013A03192D2F033A031979
:100FBC005F2F013A03197E2F0F3A0319922F013A32
:100FCC000319A32FC12FC12FC12F0A128A11002878
:100FDC0083133030FD000630FE009E30FF002030C1
:100FEC0084000A128A11B2260A128A1183010A128B
:040FFC008A11D82E50
:04400E00D4E0FFFFFC
:00000001FF
