:020000040000FA
:060000000A128A11EE2F26
:100E2A0083160313860183120313860108008316AF
:100E3A00031308080139F200F3017208F00073087D
:100E4A00F100272F080083160313080C0139F2005A
:100E5A00F3017208F0007308F100332F08003F34E1
:100E6A0006345B344F3466346D347D340734793458
:100E7A007F346F3477347C3439345E3471347E088D
:100E8A008A007F0882000A128A1144270A128A11EC
:100E9A008000840A04087D0603190034FF0A031936
:100EAA00FE0A482FF401F501F601F7010A128A1128
:100EBA0015270A128A11D32FD32F0130F4000030DC
:100ECA00F500D32F0A128A1128270A128A117003F1
:100EDA007104031D712F722F772F0230F400003036
:100EEA00F500772F0A128A111C270A128A11700339
:100EFA007104031D812F822FD32F0330F400003099
:100F0A00F500D32FD32FF71F8B2F8C2F932F013060
:100F1A00F6070318F70A0030F707962FF601F701CC
:100F2A00962F0430F4000030F500D32F7708803A6A
:100F3A00FF0080307F02031DA42F09307602031CB4
:100F4A00A72FA82FAF2FFF30F6070318F70AFF3095
:100F5A00F707B32F0930F6000030F7000430F40029
:100F6A000030F500D32F0A128A1128270A128A1193
:100F7A0070087104031DC22FC32FD32F0A128A11BE
:100F8A001C270A128A1170087104031DCD2FCE2F57
:100F9A00D32FF401F501D32FD32FD32F7508003A9D
:100FAA000319D82FD32F7408003A0319622F013A74
:100FBA000319672F033A0319882F013A03199B2F44
:100FCA00073A0319B82FD32FD32FD32F0A128A1116
:100FDA00002883133030FD000730FE003430FF0054
:100FEA00203084000A128A1148270A128A118301C2
:060FFA000A128A11572FB4
:04400E00D4E0FFFFFC
:00000001FF
